{
  "contractName": "StudentContract",
  "abi": [
    {
      "constant": true,
      "inputs": [
        {
          "name": "",
          "type": "uint256"
        }
      ],
      "name": "students",
      "outputs": [
        {
          "name": "_id1",
          "type": "uint256"
        },
        {
          "name": "_fname",
          "type": "string"
        },
        {
          "name": "_lname",
          "type": "string"
        }
      ],
      "payable": false,
      "stateMutability": "view",
      "type": "function",
      "signature": "0x06ead22e"
    },
    {
      "constant": true,
      "inputs": [],
      "name": "studentCounter",
      "outputs": [
        {
          "name": "",
          "type": "uint256"
        }
      ],
      "payable": false,
      "stateMutability": "view",
      "type": "function",
      "signature": "0xe3596cac"
    },
    {
      "inputs": [],
      "payable": false,
      "stateMutability": "nonpayable",
      "type": "constructor",
      "signature": "constructor"
    },
    {
      "anonymous": false,
      "inputs": [
        {
          "indexed": false,
          "name": "id",
          "type": "uint256"
        },
        {
          "indexed": false,
          "name": "fname1",
          "type": "string"
        },
        {
          "indexed": false,
          "name": "lname1",
          "type": "string"
        }
      ],
      "name": "studentListed",
      "type": "event",
      "signature": "0xfef0078b59844bda99d3a081f61582cd426f3074ef6b4ff5f7a4d73fa058062c"
    },
    {
      "constant": false,
      "inputs": [
        {
          "name": "_fname",
          "type": "string"
        },
        {
          "name": "_lname",
          "type": "string"
        }
      ],
      "name": "addStudent",
      "outputs": [],
      "payable": false,
      "stateMutability": "nonpayable",
      "type": "function",
      "signature": "0xe27bb1f7"
    },
    {
      "constant": false,
      "inputs": [],
      "name": "studentList",
      "outputs": [],
      "payable": false,
      "stateMutability": "nonpayable",
      "type": "function",
      "signature": "0xd43e001a"
    }
  ],
  "bytecode": "0x60806040526000805534801561001457600080fd5b506100986040805190810160405280600781526020017f4d69636861656c000000000000000000000000000000000000000000000000008152506040805190810160405280600481526020017f53696d730000000000000000000000000000000000000000000000000000000081525061009d640100000000026401000000009004565b6101a8565b60008054600190810180835560408051606081018252828152602080820188815282840188905293865284815291909420845181559151805192936100ea9390850192919091019061010d565b506040820151805161010691600284019160209091019061010d565b5050505050565b828054600181600116156101000203166002900490600052602060002090601f016020900481019282601f1061014e57805160ff191683800117855561017b565b8280016001018555821561017b579182015b8281111561017b578251825591602001919060010190610160565b5061018792915061018b565b5090565b6101a591905b808211156101875760008155600101610191565b90565b6107c8806101b76000396000f3fe6080604052600436106100615763ffffffff7c010000000000000000000000000000000000000000000000000000000060003504166306ead22e8114610066578063d43e001a14610175578063e27bb1f71461018c578063e3596cac146102c6575b600080fd5b34801561007257600080fd5b506100906004803603602081101561008957600080fd5b50356102ed565b604051808481526020018060200180602001838103835285818151815260200191508051906020019080838360005b838110156100d75781810151838201526020016100bf565b50505050905090810190601f1680156101045780820380516001836020036101000a031916815260200191505b50838103825284518152845160209182019186019080838360005b8381101561013757818101518382015260200161011f565b50505050905090810190601f1680156101645780820380516001836020036101000a031916815260200191505b509550505050505060405180910390f35b34801561018157600080fd5b5061018a610425565b005b34801561019857600080fd5b5061018a600480360360408110156101af57600080fd5b8101906020810181356401000000008111156101ca57600080fd5b8201836020820111156101dc57600080fd5b803590602001918460018302840111640100000000831117156101fe57600080fd5b91908080601f016020809104026020016040519081016040528093929190818152602001838380828437600092019190915250929594936020810193503591505064010000000081111561025157600080fd5b82018360208201111561026357600080fd5b8035906020019184600183028401116401000000008311171561028557600080fd5b91908080601f016020809104026020016040519081016040528093929190818152602001838380828437600092019190915250929550610692945050505050565b3480156102d257600080fd5b506102db6106fb565b60408051918252519081900360200190f35b600160208181526000928352604092839020805481840180548651600296821615610100026000190190911695909504601f810185900485028601850190965285855290949193929091908301828280156103895780601f1061035e57610100808354040283529160200191610389565b820191906000526020600020905b81548152906001019060200180831161036c57829003601f168201915b50505060028085018054604080516020601f600019610100600187161502019094169590950492830185900485028101850190915281815295969594509092509083018282801561041b5780601f106103f05761010080835404028352916020019161041b565b820191906000526020600020905b8154815290600101906020018083116103fe57829003601f168201915b5050505050905083565b6000805460609182916001908101905b8181101561068b57600081815260016020818152604092839020805490830180548551600295821615610100026000190190911694909404601f81018490048402850184019095528484529096509192908301828280156104d75780601f106104ac576101008083540402835291602001916104d7565b820191906000526020600020905b8154815290600101906020018083116104ba57829003601f168201915b5050506000848152600160208181526040928390206002908101805485519481161561010002600019011691909104601f8101839004830284018301909452838352959a50909493509091508301828280156105745780601f1061054957610100808354040283529160200191610574565b820191906000526020600020905b81548152906001019060200180831161055757829003601f168201915b505050505093507ffef0078b59844bda99d3a081f61582cd426f3074ef6b4ff5f7a4d73fa058062c838686604051808481526020018060200180602001838103835285818151815260200191508051906020019080838360005b838110156105e65781810151838201526020016105ce565b50505050905090810190601f1680156106135780820380516001836020036101000a031916815260200191505b50838103825284518152845160209182019186019080838360005b8381101561064657818101518382015260200161062e565b50505050905090810190601f1680156106735780820380516001836020036101000a031916815260200191505b509550505050505060405180910390a1600101610435565b5050505050565b60008054600190810180835560408051606081018252828152602080820188815282840188905293865284815291909420845181559151805192936106df93908501929190910190610701565b506040820151805161068b916002840191602090910190610701565b60005481565b828054600181600116156101000203166002900490600052602060002090601f016020900481019282601f1061074257805160ff191683800117855561076f565b8280016001018555821561076f579182015b8281111561076f578251825591602001919060010190610754565b5061077b92915061077f565b5090565b61079991905b8082111561077b5760008155600101610785565b9056fea165627a7a7230582094a05f7ba755d4b5fac53733ba41024ec9126f885f9f11b4ae9fd681cb14765d0029",
  "source": "pragma solidity <=0.5.1;\r\ncontract StudentContract {\r\n    \r\n    uint256 public studentCounter = 0;\r\n    \r\n    mapping(uint => Student) public students;\r\n    \r\n    constructor() public {\r\n        addStudent(\"Michael\", \"Sims\");\r\n    }\r\n    \r\n    struct  Student{\r\n        uint _id1;\r\n        string _fname;\r\n        string _lname;\r\n        \r\n    }\r\n    \r\n    event studentListed(uint256 id,\r\n                string fname1,\r\n                string lname1);\r\n    \r\n    function addStudent(string memory _fname, string memory _lname) public {\r\n        studentCounter++;\r\n        students[studentCounter] = Student(studentCounter, _fname, _lname);\r\n    }\r\n    \r\n    function studentList()  public  {\r\n        string memory frame0;\r\n        string memory lname0;\r\n        uint256 sid;\r\n        uint256 sCnt = studentCounter + 1;\r\n        \r\n        for (uint256 i=1; i<sCnt; i++){\r\n            \r\n             sid = students[i]._id1;\r\n            frame0 = students[i]._fname;\r\n            lname0 = students[i]._lname;\r\n            \r\n            emit studentListed(sid,frame0,lname0);\r\n           \r\n        }    \r\n    \r\n    }\r\n    \r\n}",
  "sourcePath": "C:/ethereumClient/contracts/StudentContract.sol",
  "compiler": {
    "name": "solc",
    "version": "0.5.0+commit.1d4f565a.Emscripten.clang"
  },
  "schemaVersion": "3.0.1",
  "updatedAt": "2019-10-01T19:19:40.532Z",
  "devdoc": {
    "methods": {}
  },
  "userdoc": {
    "methods": {}
  }
}